:020000040800F2
:10000000D8080020090B0008610B0008610B0008EC
:10001000610B0008610B0008610B00080000000084
:10002000000000000000000000000000610B00085C
:10003000610B000800000000610B0008610B000864
:10004000610B0008610B0008610B0008610B0008E0
:10005000610B0008610B0008610B0008610B0008D0
:10006000610B0008610B0008610B0008610B0008C0
:10007000610B0008610B0008610B0008610B0008B0
:10008000610B0008610B0008610B0008610B0008A0
:10009000610B0008610B0008610B0008610B000890
:1000A000610B0008610B0008610B0008610B000880
:1000B000610B0008610B0008610B0008610B000870
:1000C000610B0008610B0008610B0008610B000860
:1000D000610B0008610B0008610B0008610B000850
:1000E000610B0008610B0008610B0008610B000840
:1000F000610B0008610B0008610B0008610B000830
:10010000610B0008610B0008610B0008610B00081F
:10011000610B0008610B0008610B0008610B00080F
:10012000210F0008450F0008690F0008610B000847
:10013000610B0008610B0008610B0008610B0008EF
:10014000610B0008610B0008610B0008610B0008DF
:10015000610B0008610B0008610B0008610B0008CF
:10016000610B0008610B0008610B0008610B0008BF
:10017000610B0008610B0008610B0008610B0008AF
:10018000610B0008610B0008610B0008610B00089F
:10019000610B0008610B0008610B0008610B00088F
:1001A000610B0008610B0008610B000880B582B08C
:1001B00000AF0023FB711D4B1B78002B07D01B4B9E
:1001C0001B78012B01D101232BE0002329E000F053
:1001D00053F800F05BF9002000F03CF80346BB80C8
:1001E000002045F63C2100F023F8002000F032F812
:1001F00003467B80BB880020194600F019F87B88F5
:1002000045F63C22934201D10123FB71FB79012B7E
:1002100003D1064B01221A7002E0044B02221A702D
:10022000FB7918460837BD4680BD00BF340000206A
:1002300080B483B000AF78600B467B807B6803F1AD
:1002400050431A467B8813800C37BD465DF8047B0B
:10025000704700BF80B485B000AF78600023FB8199
:100260007B6803F150431B88FB81FB8918461437D8
:10027000BD465DF8047B704780B582B000AF7E203C
:10028000012100F021FF02233B7102237B71002337
:10029000BB710023FB71774805210C2202F0CAF8DC
:1002A000744806210C2202F0C5F860233B603B46EF
:1002B0007048194602F030F86F4800210C2202F015
:1002C000B9F801233B603B466B48194602F024F81D
:1002D0006A4800210C2202F0ADF8684801210C2286
:1002E00002F0A8F8654808210C2202F0A3F8634840
:1002F00009210C2202F09EF860480A210C2202F02B
:1003000099F85E480E210C2202F094F85B480F2108
:100310000C2202F08FF84CF203733B603B465748C7
:10032000194601F0F9FF564800210C2202F082F82C
:10033000534801210C2202F07DF8514807210C227C
:1003400002F078F84E4808210C2202F073F84C486D
:1003500009210C2202F06EF849480A210C2202F011
:1003600069F847480B210C2202F064F844480C213C
:100370000C2202F05FF842480D210C2202F05AF8DC
:100380003F480E210C2202F055F83D480F210C2267
:1003900002F050F84FF683733B603B4638481946ED
:1003A00001F0BAFF374800210C2202F043F835482B
:1003B00001210C2202F03EF8324802210C2202F008
:1003C00039F8304803210C2202F034F82D4804217A
:1003D0000C2202F02FF82B4805210C2202F02AF8FB
:1003E00028480B210C2202F025F826480C210C226B
:1003F00002F020F823480D210C2202F01BF82148BE
:100400000E210C2202F016F81E480F210C2202F0D9
:1004100011F84FF63F033B603B461A48194601F07E
:100420007BFF194800210C2202F004F81648012134
:100430000C2201F0FFFF144804210C2201F0FAFF06
:10044000114805210C2201F0F5FF0F4808210C226C
:1004500001F0F0FF0C480F210C2201F0EBFF48F2F5
:1004600033133B603B460848194601F055FF0837F7
:10047000BD4680BD0004024000080240000C02405E
:1004800000100240001402400018024080B592B0F3
:1004900000AF0120012100F035FE02233B6007235D
:1004A0007B600423BB600723FB6002233B610223C4
:1004B0007B610223BB610123FB6100233B620423B8
:1004C0007B621023BB624023FB624FF4C0733B632B
:1004D00000237B634FF40063BB630023FB634FF493
:1004E00000533B643B467B6407F11C03184602F053
:1004F0008FFA00F003F84837BD4680BD80B586B05E
:1005000000AF00237B6101237B600823BB600123D4
:10051000FB6000233B6100BF0120202102F058FB5B
:100520000346002BF8D13B1D184602F01FFB0A20A2
:1005300000F05AF802237B600823BB600123FB60B4
:1005400000233B6100BF0120202102F041FB034654
:10055000002BF8D13B1D184602F008FB03237B60FB
:100560000823BB600423FB6000233B6100BF012024
:10057000202102F02DFB0346002BF8D13B1D18462D
:1005800002F0F4FA00BF0120202102F021FB034613
:10059000002BF8D13B1D184602F0E8FA40F2312357
:1005A0007B6104237B600823BB600123FB607B69C4
:1005B0003B6100BF0120202102F00AFB0346002B13
:1005C000F8D13B1D184602F0D1FA40F2AB2002F000
:1005D000EDFA00BF0120202102F0FAFA0346002BB9
:1005E000F8D11837BD4680BD80B485B000AF7860C3
:1005F0000023FB607B68084A02FB03F3FB6002E018
:10060000FB68013BFB60FB68002BF9D11437BD464A
:100610005DF8047B704700BFA086010080B500AF85
:100620004FF40000012100F0A9FD4FF4000000216B
:1006300000F0A4FD80BD00BF80B487B000AF78603B
:1006400000237B6100233B610023FB600023BB6030
:100650004F4A4F4B1B6823F0031323F4F8531360E6
:100660004B494B4B1A687B681B6813430B60484A25
:10067000474B5B6B23F0070353634549444B5A6B6D
:100680007B685B6813434B637B685B68002B0CD112
:100690007B68DB681B027B617B681B691B043B6119
:1006A0007B685B691B06FB603AE07B685B68012B3B
:1006B0000AD17B68DB681B027B617B681B691B04BA
:1006C0003B610023FB602BE07B685B68022B0AD157
:1006D0007B68DB685B017B617B681B69DB023B61DC
:1006E0000023FB601CE07B685B68032B0CD17B68FC
:1006F000DB685B017B617B681B699B023B617B68FC
:100700005B69DB03FB600BE07B68DB681B017B61E3
:100710007B681B691B023B617B685B691B03FB6099
:100720001B481B4B9A6B79693B6919437B689B6833
:100730001943FB680B4313438363154A7B689B692A
:10074000D363134A124B1B6C23F47F5323F03F03F4
:1007500013640F490E4B1A6C7B68DB6913430B64FF
:100760007B685B6A1B04BB60094A094B5B6C03F046
:10077000404353640648064B5A6C7B68196ABB6851
:100780000B43134343641C37BD465DF8047B70473D
:1007900000B0024080B400AF044A044B1B6843F031
:1007A00001031360BD465DF8047B704700B0024052
:1007B00080B485B000AF78600023FB73084B5A68A3
:1007C0007B681340002B02D00123FB7301E0002360
:1007D000FB73FB7B18461437BD465DF8047B7047FE
:1007E00000B0024080B489B000AF78600023FB61A4
:1007F0000023BB6100237B6100233B610023FB607E
:100800000023BB603F493F4B9A683F4B13408B60CE
:100810007B681B691B04FB613A483A4B9A687B680A
:100820005969FB690B43134383603649354BDA68DA
:10083000354B1340CB607B689B691B04BB6131481F
:10084000304BDA687B68D969BB690B431343C360DB
:100850002C492C4B1A692C4B13400B617B681B6A8B
:100860001B047B612748274B1A697B68596A7B699F
:100870000B43134303612349224B5A69224B134014
:100880004B617B689B6A1B043B611E481D4B5A6988
:100890007B68D96A3B690B43134343611949194B80
:1008A0009A691A4B13408B611648164B9A697B68FC
:1008B00019687B685B6819437B689B6819437B6890
:1008C000DB680B43134383617B685B6B1B02FB603C
:1008D0007B681B6B1B04BB600A4A0A4BDB6A03F094
:1008E0007F43D3620748074BDA6AB968FB6819434C
:1008F0007B689B6B0B431343C3622437BD465DF893
:10090000047B70470068014000F800F08F88FE0FFC
:1009100080B483B000AF0346FB71FB79002B06D097
:10092000084A084B9B6943F00103936105E0054ABF
:10093000044B9B6923F0010393610C37BD465DF8BE
:10094000047B70470068014080B483B000AF034669
:10095000FB71FB79002B06D0084A084B9B6943F4D6
:100960008033936105E0054A044B9B6923F480338F
:1009700093610C37BD465DF8047B70470068014009
:1009800080B483B000AF7860034A7B6853620C3751
:10099000BD465DF8047B70470068014080B489B0B3
:1009A00000AF786039600023FB610023BB61002346
:1009B0007B6100233B610023FB600023BB603B683D
:1009C0005B681B04FB617B685B6803F470427B68B7
:1009D0005A603B681A68FB691A437B685A603B6837
:1009E000DB681B04BB617B689B6803F470427B6817
:1009F0009A603B689A68BB691A437B689A607B6817
:100A00001B6923F007027B681A613B681A697B68DF
:100A10001A613B68DB691B027B613B681B6A1B0434
:100A20003B613B685B6A1B06FB607B689B697B687C
:100A300000229A613B689A697B691A433B691A43B1
:100A4000FB681A437B689A617B685B6923F0FF024D
:100A50007B685A613B685A697B685A617B68DB69CD
:100A600023F4E06323F007037A68D3613B689A6A52
:100A70003B68DB6A1A437B68DA617B689B6A7B6848
:100A800000229A623B681A6B7B689A623B689B6B98
:100A90001B04BB607B68DB6A03F0E0227B68DA62E0
:100AA0003B685A6BBB681A437B68DA627B681B6BD6
:100AB00023F4FF6323F007037A6813633B68DA6B60
:100AC0007B681A632437BD465DF8047B704700BF1E
:100AD00080B483B000AF78600B46FB70FB78002BCE
:100AE00006D07B681B6843F001027B681A6005E052
:100AF0007B681B6823F001027B681A600C37BD46D7
:100B00005DF8047B704700BF80B582B000AF0F4B2B
:100B10007B600F4B3B6007E03B681A1D3A607A68C8
:100B2000111D796012681A603B680A4A9342F3D338
:100B300009480A494FF000028842B8BF40F8042B28
:100B4000FADB00F061FA0837BD4680BD1C2F0008B3
:100B5000000000203400002034000020D4000020D9
:100B600080B400AFFEE700BF80B582B000AF4FF4A5
:100B70008000012100F0A8FA4FF48070012100F0FC
:100B8000DFFA4FF40070012100F0DAFA4FF48060D0
:100B9000012100F0D5FA0120012100F095FA04208E
:100BA000012100F091FA2020012100F08DFA904BF4
:100BB000A0221A608E4B03221A718D4B0022DA712B
:100BC0008C488B4901F0A8FB894B08221A608A489F
:100BD000874901F0A1FB864B40221A60874884496F
:100BE00001F09AFB864B00221A60864A844B9A6079
:100BF000834B854A5A60824B0022DA60804B022286
:100C00001A617F4B00225A617D4B4FF480629A61DA
:100C10007B4B4FF40062DA61794B4FF400521A6259
:100C2000774B4FF480725A62754B4FF400329A62E0
:100C3000734B0422DA62724B01221A63704B00225A
:100C40005A636F4B00229A6370486D4901F006FEAB
:100C50006B4B4FF000721A606D4A694B9A60684B9B
:100C60006C4A5A60664B01221A616B48644901F074
:100C7000F5FD634B4FF080621A60684A604B9A60E2
:100C80005F4B674A5A605E4B01221A6165485C49B6
:100C900001F0E4FD5D48012101F036FE61480121CB
:100CA00001F032FE5C48012101F02EFE5748102170
:100CB000012201F045FE5B481021012201F040FEB7
:100CC00055481021012201F03BFE574B00221A60CB
:100CD000554B00225A60544B00229A60524B00221E
:100CE000DA60514800F032FB504B00221A604F4B43
:100CF00001221A714D4B01225A714C4B00229A600D
:100D00004A4B00221A61494B02221A75484847494A
:100D100000F0C8FA454B01221A754648434900F0D5
:100D2000C1FA424B01221A754348404900F0BAFA11
:100D30003F4805210122002300F04CFB3C480721DD
:100D40000222002300F046FB3A480D210122002335
:100D500000F040FB384804210122002300F03AFB58
:100D60003A233B7100237B710123BB710123FB718B
:100D70003B1D184602F072F839233B713B1D1846A3
:100D800002F06CF838233B713B1D184602F066F800
:100D90002748012100F0F8FB2648012100F0F4FB70
:100DA0002548012100F0F0FB2148012100F008FC5A
:100DB0002048012100F004FC1F48012100F000FC44
:100DC0001B48012100F0EAFA1A48012100F0E6FA76
:100DD0001948012100F0E2FA154800F0C5FB15485A
:100DE00000F0C2FB144800F0BFFB0837BD4680BDD1
:100DF0007C00002000000240000802400014024075
:100E000088000020380000204C200140106402407F
:100E10003C0000204C210140406402403E00002084
:100E20004C22014028640240C400002064000020DD
:100E300000200140002101400022014080B500AFA8
:100E4000324B1B68B3F59B7F02D1304B0A221A60EC
:100E50002F4B5B889AB22F4BA3FB0213D21A520876
:100E600013441B099BB20A339AB2284B1B689BB2EE
:100E7000104619461F2200F0BFFB254B9B889AB2F3
:100E8000244BA3FB0213D21A520813441B099BB232
:100E90000A339AB21D4B1B689BB21046194640F2AA
:100EA000FF7200F0A9FB1C4B1B889AB2194BA3FBE5
:100EB0000213D21A520813441B099BB20A339AB286
:100EC000124B1B689BB21046194640F2FF7200F0AD
:100ED00093FB124B1B889AB20E4BA3FB0213D21A40
:100EE000520813441B099BB20A339AB2074B1B6882
:100EF0009BB2104619464FF4FC6200F07DFB034B99
:100F00001B680133014A136080BD00BF0000002050
:100F100038000020CB6B28AF3C0000203E000020B2
:100F200080B500AF0448054901F044FD044B1B683F
:100F30000133034A136080BD10640240200000109A
:100F40005800002080B500AF0448054901F032FD8B
:100F5000044B1B680133034A136080BD28640240C0
:100F6000000800105C00002080B500AF05484FF07D
:100F7000815101F01FFD044B1B680133024A1360CD
:100F800080BD00BF406402404000002080B584B0B6
:100F900002AF4FF6FF7300930A200A21DC224FF4C0
:100FA000967300F09DFC4FF6FF73009378200A21A2
:100FB00078224FF49B7300F03FFB4FF6FF730093D2
:100FC0000A20A021E622A02300F036FB2023FB808C
:100FD00014E02823BB800AE0FA88BB881046194633
:100FE0004FF6FF7200F008FBBB881E33BB80BB8846
:100FF000B3F5967FF0D3FB881633FB80FB88DB2BA1
:10100000E7D90837BD4680BD80B500AF01F05AFA78
:1010100000F020FD00F05AFD00F0B0FD002000F0CF
:10102000D1FD00F0BDFD002000F0CCFDFFF7AEFFCC
:10103000FFF79AFDFFF702FFFCE700BF80B485B021
:1010400000AFF860B9607A600749FB689A01BB6835
:101050001B061A437B681B071343C1F888301437FB
:10106000BD465DF8047B70470038024080B483B011
:1010700000AF0346FB71044AFB7913600C37BD4691
:101080005DF8047B704700BF7000474280B485B0B4
:1010900000AF78600023FB600A4BD3F88C30FB6014
:1010A000FB6823F44033FB60FA687B681343FB6002
:1010B000044AFB68C2F88C301437BD465DF8047BE7
:1010C000704700BF0038024080B483B000AF786042
:1010D0000B46FB70FB78002B06D00949084B1A6BB6
:1010E0007B6813430B6306E00549054B1A6B7B686D
:1010F000DB4313400B630C37BD465DF8047B704740
:101100000038024080B483B000AF78600B46FB70BB
:10111000FB78002B06D00949084B9A6B7B68134378
:101120008B6306E00549054B9A6B7B68DB431340F4
:101130008B630C37BD465DF8047B70470038024076
:1011400080B483B000AF78600B46FB70FB78002B57
:1011500006D00949084B5A6C7B6813434B6406E080
:101160000549054B5A6C7B68DB4313404B640C37D5
:10117000BD465DF8047B70470038024080B483B000
:1011800000AF78600B46FB70FB78002B06D0094956
:10119000084B1A697B6813430B6106E00549054B50
:1011A0001A697B68DB4313400B610C37BD465DF861
:1011B000047B70470038024080B483B000AF786091
:1011C0000B46FB70FB78002B06D00949084B1A6AC6
:1011D0007B6813430B6206E00549054B1A6A7B687E
:1011E000DB4313400B620C37BD465DF8047B704750
:1011F0000038024080B483B000AF78600B46FB70CB
:10120000FB78002B06D00949084B5A6A7B681343C8
:101210004B6206E00549054B5A6A7B68DB43134085
:101220004B620C37BD465DF8047B704700380240C6
:1012300080B487B000AF0346FB710023FB6000233E
:101240007B610023FB74FB795B09DBB2FB60FB680D
:10125000012B03D1124B1B687B6109E0FB68022B59
:1012600003D10F4B1B6F7B6102E00D4B5B6F7B610A
:10127000FB7903F01F03FB60FB687A6922FA03F332
:1012800003F00103002B02D00123FB7401E00023D3
:10129000FB74FB7C18461C37BD465DF8047B704729
:1012A0000038024080B485B000AF78603960002318
:1012B000FB600023FB727B685B68FB60FB6823F0CC
:1012C000407323F48073FB603B681B791A023B6810
:1012D0001B681343FA681343FB607B68FA685A6023
:1012E0007B689B68FB60FA68174B1340FB603B68A8
:1012F0001A693B68DB681A433B689B681A433B6882
:101300005B795B001343FA681343FB607B68FA6800
:101310009A607B68DB6AFB60FB6823F47003FB6008
:101320003B681B7D013BDAB2FB7A1343FB72FB7A0D
:101330001B05FA681343FB607B68FA68DA621437AE
:10134000BD465DF8047B7047FDF7FFC080B485B0F3
:1013500000AF78600023FB600E4B5B68FB60FA68AF
:101360000D4B1340FB607B681A687B685B681A430F
:101370007B689B681A437B68DB681343FA681343F6
:10138000FB60044AFB6853601437BD465DF8047B7C
:10139000704700BF00230140E030FCFF80B483B001
:1013A00000AF78600B46FB70FB78002B06D07B68A3
:1013B0009B6843F001027B689A6005E07B689B684C
:1013C00023F001027B689A600C37BD465DF8047B10
:1013D000704700BF80B485B000AF78600846114602
:1013E0001A460346FB700B46BB7013467B70002306
:1013F000FB600023BB60FB78092B23D97B68DB688B
:10140000FB60FB78A3F10A0213465B00134407223A
:1014100002FA03F3BB60BB68DB43FA681340FB606E
:101420007978FB78A3F10A0213465B00134401FAB2
:1014300003F3BB60FA68BB681343FB607B68FA6820
:10144000DA601EE07B681B69FB60FA7813465B007C
:101450001344072202FA03F3BB60BB68DB43FA685C
:101460001340FB607978FA7813465B00134401FA65
:1014700003F3BB60FA68BB681343FB607B68FA68E0
:101480001A61BB78062B21D87B685B6BFB60BB784D
:101490005A1E13469B0013441F2202FA03F3BB603B
:1014A000BB68DB43FA681340FB60F978BB785A1ECF
:1014B00013469B00134401FA03F3BB60FA68BB6850
:1014C0001343FB607B68FA685A6347E0BB780C2BD8
:1014D00021D87B681B6BFB60BB78DA1F13469B002F
:1014E00013441F2202FA03F3BB60BB68DB43FA68B4
:1014F0001340FB60F978BB78DA1F13469B00134456
:1015000001FA03F3BB60FA68BB681343FB607B68B6
:10151000FA681A6322E07B68DB6AFB60BB78A3F1A0
:101520000D0213469B0013441F2202FA03F3BB6013
:10153000BB68DB43FA681340FB60F978BB78A3F122
:101540000D0213469B00134401FA03F3BB60FA68D3
:10155000BB681343FB607B68FA68DA621437BD46E8
:101560005DF8047B704700BF80B483B000AF786043
:101570007B689B6843F080427B689A600C37BD466D
:101580005DF8047B704700BF80B483B000AF786023
:101590000B46FB70FB78002B06D07B689B6843F4FE
:1015A00080727B689A6005E07B689B6823F4807298
:1015B0007B689A600C37BD465DF8047B704700BFBE
:1015C00080B483B000AF78600B46FB70FB78002BD3
:1015D00006D07B689B6843F400727B689A6005E0E4
:1015E0007B689B6823F400727B689A600C37BD4669
:1015F0005DF8047B704700BF80B582B000AF034642
:10160000FB800B46BB8013467B80FB88EF2B00D909
:101610000EE0BB88B3F5A07F00D309E0FA88BB8851
:101620001046194600F0EEFA7B88184600F018FBC9
:101630000837BD4680BD00BF90B58BB000AF0446F3
:10164000084611461A462346FB800346BB800B46DC
:101650007B8013463B80FB88EF2B01D9EF23FB8077
:10166000BB88B3F5A07F02D340F23F13BB807B88D9
:10167000EF2B01D9EF237B803B88B3F5A07F02D30A
:1016800040F23F133B807A88FB88D31A9BB23B849D
:101690003A88BB88D31A9BB2FB83B7F9203018462F
:1016A00000F0BCF90346FB81B7F91E30184600F084
:1016B000B5F90346BB81B7F92030002B03DA3B8C28
:1016C0005B429BB23B84B7F91E30002B03DAFB8BE5
:1016D0005B429BB2FB83B7F92020B7F91E309A42D8
:1016E0000CDDFB89BB8300237B83FB893B83BB89A8
:1016F000FB82FB8BBB823B8C7B820BE00023BB839A
:10170000BB897B83FB893B83BB89FB823B8CBB8290
:10171000FB8B7B82FB88FB84BB88BB84B7F91230D0
:101720005B103B82F98CBA8C3B8F084611461A46F7
:10173000FFF762FF00237B842EE03A8ABB8AD31A2C
:101740009BB23B82B7F91030002B0FDA3A8A7B8AC2
:1017500013449BB23B82FA8C3B8B13449BB2FB84B9
:10176000BA8CFB8A13449BB2BB8409E0FA8CBB8B16
:1017700013449BB2FB84BA8C7B8B13449BB2BB8417
:10178000F98CBA8C3B8F084611461A46FFF734FF96
:101790007B8C01339BB27B84B7F92220B7F91230DE
:1017A0009A42CADB2C37BD4690BD00BF90B591B0C0
:1017B00000AF0446084611461A462346FB800346FE
:1017C000BB800B467B8013467B700023FB630023AA
:1017D0007B8700233B870023FB86FB88EF2B01D907
:1017E000EF23FB80BB88B3F5A07F02D340F23F1309
:1017F000BB807B88002B6BD0BA8813461B019B1AD9
:101800001B011A46FB8813445B001A46324B1B68C7
:101810001344FB63B7F85030DB0A7B87B7F85030CE
:1018200003F01F03FB86B7F8503003F4FC639BB250
:101830005B093B87FEF7F2FE4FF44033FB60022367
:101840003B613B8FBB61FB8E7B617B8FFB610F2319
:101850003B62FB6B7B62214B1B78012B07D17B78B2
:10186000002B02D101237B7001E000237B707B7889
:10187000002B0FD1FA887B881344F02B03DDFB8803
:10188000C3F1F0037B800023BB620123FB627B88F2
:101890003B630FE0BA887B881344B3F5A07F03DD78
:1018A000BB88C3F5A0737B80EF23BB627B88FB62A0
:1018B00001233B6307F10C031846FEF7BDFEFEF75C
:1018C00069FF00BF0220FEF773FF0346002BF9D02B
:1018D0004437BD4690BD00BF840000205400002066
:1018E00090B587B002AF0446084611461A46234613
:1018F000FB800346BB800B467B8013463B80FB8806
:10190000EF2B01D9EF23FB80BB88B3F5A07F02D377
:1019100040F23F13BB807B88002B00D179E03B88ED
:10192000002B00D175E03C4B1B78012B05D17B8847
:10193000FB813B887B80FB893B80FA887B88134452
:10194000F02B03DDFB88C3F1F0037B80BA883B8872
:101950001344B3F5A07F03DDBB88C3F5A0733B80C0
:101960002D4B1B78012B2AD1F888B9883A883B8CFB
:1019700000930023FFF71AFFFA887B8813449BB279
:10198000013B98B2B9883A883B8C00930023FFF75B
:101990000DFFF888B9887A883B8C00930123FFF704
:1019A00005FFBA883B8813449BB2013B99B2F88883
:1019B0007A883B8C00930123FFF7F8FE29E0F88832
:1019C000B9887A883B8C00930023FFF7EFFEBA8832
:1019D0003B8813449BB2013B99B2F8887A883B8CD0
:1019E00000930023FFF7E2FEF888B9883A883B8C21
:1019F00000930123FFF7DAFEFA887B8813449BB239
:101A0000013B98B2B9883A883B8C00930123FFF7D9
:101A1000CDFE1437BD4690BD5400002080B483B085
:101A200000AF0346FB80B7F90630002B09DCB7F99D
:101A30000630002B02DA4FF6FF7300E000239BB262
:101A400000E001239BB21BB218460C37BD465DF87F
:101A5000047B704780B582B000AF0023FB7100F0BB
:101A600065F9002000F0EEFD00F00EFA104B0022A8
:101A70001A70FEF79BFB00F08DF90123FB710D4BF3
:101A800000221A800C4B00221A800C4B00221A6094
:101A90000B4B4FF050421A600A4B00221A600A4B5F
:101AA00000221A60FB7918460837BD4680BD00BF8A
:101AB0005400002044000020460000204800002080
:101AC00084000020500000206000002080B590B00D
:101AD00000AF1E233B6040F20D137B600423BB600C
:101AE00040F24313FB6002233B61FF237B61002331
:101AF000BB610023FB6100233B6200237B624FF448
:101B00008063BB620523FB6240F2E3137B634FF407
:101B1000F073BB634FF4A073FB634FF050433B6320
:101B20003B4613481946FEF739FF124B3B634FF40F
:101B3000C063BB620723FB623B460F481946FEF7B2
:101B40002DFF0120FEF71CFF09480121FEF7C0FF11
:101B500009480121FEF7BCFF0120FEF711FF01201B
:101B6000FEF7F2FE0120FEF7D3FE4037BD4680BDF2
:101B700084680140005802D00469014080B400AF7D
:101B8000054B4FF050421A60044B00221A60BD46CC
:101B90005DF8047B704700BF8400002050000020E7
:101BA00080B400AF044B054A1A60054B01221A604D
:101BB000BD465DF8047B704784000020005802D0C9
:101BC0005000002080B485B000AF0346FB800023A6
:101BD000FB600023FB6009E0094B1A68FB681344B3
:101BE0001A46FB881380FB680233FB60FB68B3F581
:101BF000163FF1D31437BD465DF8047B704700BF34
:101C00008400002080B483B000AF03460A46FB8006
:101C10001346BB800E4AFB8813800E4ABB88138094
:101C20000C4B1B881A4613461B019B1A1B011A46B4
:101C3000074B1B8813445B001A46074B1B68134471
:101C4000064A13600C37BD465DF8047B704700BF41
:101C500044000020460000208400002048000020AE
:101C600080B483B000AF0346FB802B4B1B681A4641
:101C7000FB881380294B1B78002B1BD1284B1B881A
:101C800001339AB2264B1A80254B1B88EF2B2CD997
:101C9000234B00221A80234B1B8801339AB2214B1D
:101CA0001A80204B1B88B3F5A07F1ED31D4B00224A
:101CB0001A801AE01B4B1B8801339AB2194B1A8009
:101CC000184B1B88B3F5A07F0FD3164B00221A8048
:101CD000134B1B8801339AB2114B1A80104B1B888F
:101CE000EF2B02D90E4B00221A800E4B1B881A468E
:101CF00013461B019B1A1B011A46094B1B881344F0
:101D00005B001A46084B1B681344034A13600C37E8
:101D1000BD465DF8047B7047480000205400002059
:101D200044000020460000208400002080B582B0DE
:101D300000AF08200121FFF7C7F94FF400533B60C3
:101D400002237B7101233B710023BB710023FB71D4
:101D50003B460E48194600F0DFFA04200121FFF748
:101D6000B3F904233B6002237B7101233B71002301
:101D7000BB710023FB713B460548194600F0CCFAC5
:101D8000012000F053F80837BD4680BD000C02402A
:101D90000008024080B590B000AF4FF08060012194
:101DA000FFF7CEF94FF400000121FFF78DF900F0A5
:101DB000E3F900237B600023BB600023FB6000236A
:101DC0003B6100237B630023BB630023FB63C020D4
:101DD00007210422FFF732F94FF40030FFF756F9DC
:101DE0000120FFF743F900BF3D20FFF721FA03462A
:101DF000002BF9D009237B610123BB611D23FB610B
:101E000003233B6240F20D137B6240F24313BB623B
:101E100040F21713FB6240F247133B633B1D184629
:101E2000FEF7E0FC4037BD4680BD00BF80B483B004
:101E300000AF0346FB71FB79002B03D1054B042255
:101E40005A8302E0034B04221A830C37BD465DF827
:101E5000047B70470008024080B483B000AF0346A3
:101E6000FB71FB79002B04D1064B4FF400525A83CF
:101E700003E0044B4FF400521A830C37BD465DF863
:101E8000047B7047000C024080B500AFCA2000F010
:101E900043F9C32000F058F9082000F055F950200C
:101EA00000F052F9CF2000F037F9002000F04CF993
:101EB000C12000F049F9302000F046F9ED2000F093
:101EC0002BF9642000F040F9032000F03DF91220C6
:101ED00000F03AF9812000F037F9E82000F01CF911
:101EE000852000F031F9002000F02EF9782000F074
:101EF0002BF9CB2000F010F9392000F025F92C2027
:101F000000F022F9002000F01FF9342000F01CF945
:101F1000022000F019F9F72000F0FEF8202000F070
:101F200013F9EA2000F0F8F8002000F00DF9002085
:101F300000F00AF9B12000F0EFF8002000F004F9F9
:101F40001B2000F001F9B62000F0E6F80A2000F0AE
:101F5000FBF8A22000F0F8F8C02000F0DDF8102017
:101F600000F0F2F8C12000F0D7F8102000F0ECF8F3
:101F7000C52000F0D1F8452000F0E6F8152000F06B
:101F8000E3F8C72000F0C8F8902000F0DDF8362014
:101F900000F0C2F8C82000F0D7F8F22000F0BCF83A
:101FA000002000F0D1F8B02000F0B6F8C22000F018
:101FB000CBF8B62000F0B0F80A2000F0C5F8A72052
:101FC00000F0C2F8272000F0BFF8042000F0BCF8B1
:101FD0002A2000F0A1F8002000F0B6F8002000F060
:101FE000B3F8002000F0B0F8EF2000F0ADF82B209F
:101FF00000F092F8002000F0A7F8002000F0A4F80C
:10200000012000F0A1F83F2000F09EF8F62000F03B
:1020100083F8012000F098F8002000F095F80620E1
:1020200000F092F82C2000F077F8C82000F060F95A
:10203000262000F071F8012000F086F8E02000F082
:102040006BF80F2000F080F8292000F07DF82420A4
:1020500000F07AF80C2000F077F80E2000F074F809
:10206000092000F071F84E2000F06EF8782000F0A2
:102070006BF83C2000F068F8092000F065F81320A8
:1020800000F062F8052000F05FF8172000F05CF81F
:10209000112000F059F8002000F056F8E12000F07F
:1020A0003BF8002000F050F8162000F04DF81B20FF
:1020B00000F04AF8042000F047F8112000F044F83E
:1020C000072000F041F8312000F03EF8332000F006
:1020D0003BF8422000F038F8052000F035F80C20DD
:1020E00000F032F80A2000F02FF8282000F02CF839
:1020F0002F2000F029F80F2000F026F8112000F022
:102100000BF8C82000F0F4F8292000F005F82C2086
:1021100000F002F880BD00BF80B582B000AF03467A
:10212000FB710020FFF798FE0020FFF77FFEFB7990
:10213000184600F069FB0A2000F0DAF80120FFF7EA
:1021400075FE0837BD4680BD80B582B000AF03463E
:10215000FB710120FFF780FE0020FFF767FEFB798F
:10216000184600F051FB0A2000F0C2F80120FFF7EA
:102170005DFE0837BD4680BD80B582B000AF6F20E0
:102180000121FEF7A1FF544803210E2200F052F96D
:10219000514804210E2200F04DF94F4806210E222D
:1021A00000F048F94C480B210E2200F043F94A4850
:1021B0000C210E2200F03EF941F658033B60022349
:1021C0007B7102233B710023BB710023FB713B46F3
:1021D0004148194600F0A0F840480021092200F0CB
:1021E00029F93E480121092200F024F93B48082141
:1021F0000E2200F01FF9394809210E2200F01AF9C9
:1022000036480A210E2200F015F934480B210E221F
:1022100000F010F940F603733B603B462F48194627
:1022200000F07AF82E4806210E2200F003F92C481F
:1022300007210E2200F0FEF829480A210E2200F0A4
:10224000F9F84FF498633B603B462548194600F087
:1022500063F8244803210E2200F0ECF821480621FF
:102260000E2200F0E7F848233B603B461D48194624
:1022700000F052F81C480A210E2200F0DBF84FF45F
:1022800080633B603B461848194600F045F8174804
:1022900006210E2200F0CEF8144807210E2200F08D
:1022A000C9F812480A21092200F0C4F80F480B218E
:1022B0000E2200F0BFF80D480C21092200F0BAF8F8
:1022C0004FF4E6533B603B460848194600F024F8BB
:1022D0000837BD4680BD00BF000002400004024038
:1022E00000080240000C02400014024000180240A6
:1022F00080B485B000AF78600023FB607B68FB6032
:1023000002E0FB68013BFB60FB68002BF9D114374E
:10231000BD465DF8047B704780B487B000AF78603D
:10232000396000237B6100233B610023FB600023B5
:102330007B6176E07B69012202FA03F33B613B6833
:102340001A683B691340FB60FA683B699A4265D1A1
:102350007B681A687B695B00194603238B40DB436B
:102360001A407B681A607B681A683B681B791946BB
:102370007B695B0001FA03F31A437B681A603B68D0
:102380001B79012B03D03B681B79022B2ED17B6874
:102390009A687B695B00194603238B40DB431A4034
:1023A0007B689A607B689A683B685B7919467B69B1
:1023B0005B0001FA03F31A437B689A607B685A68F2
:1023C0007B699BB2194601238B40DB431A407B6833
:1023D0005A607B685B683A68927911467A6992B272
:1023E00001FA02F292B21A437B685A607B68DA689B
:1023F0007B699BB25B00032101FA03F3DB431A40C4
:102400007B68DA607B68DA683B68DB7919467B6950
:102410005B0001FA03F31A437B68DA607B690133DE
:102420007B617B690F2B85D91C37BD465DF8047B2A
:10243000704700BF80B485B000AF78600B467B80EA
:1024400013467B700023FB600023BB607B787A8897
:1024500002F0070292009340FB607B88DB089BB28E
:1024600018467B88DB089BB21A467B68083253F813
:1024700022207B8803F007039B0019460F238B4023
:10248000DB4302EA03017B6800F1080243F82210F3
:102490007B88DB089BB21A467B68083253F82220FF
:1024A000FB681343BB607B88DB089BB21A467B68E2
:1024B0000832B96843F822101437BD465DF8047B32
:1024C000704700BF80B500AF114A114B1B6843F045
:1024D000010313600E4B00229A600D4A0C4B1B68DF
:1024E00023F0847323F480331360094B094A5A6044
:1024F000074A074B1B6823F480231360044B002218
:10250000DA6000F00BF8044B4FF000629A6080BD77
:10251000003802401030002400ED00E080B483B0A9
:1025200000AF00237B6000233B60424A414B1B68A5
:1025300043F4803313603F4B1B6803F400333B606C
:102540007B6801337B603B68002B03D17B68B3F56C
:10255000A04FF0D1374B1B6803F40033002B02D09F
:1025600001233B6001E000233B603B68012B5CD111
:10257000304A304B1B6C43F0805313642E4A2E4B71
:102580001B6843F4404313602A4A2A4B9B689360BC
:10259000284A284B9B6843F400439360254A254B07
:1025A0009B6843F4A0539360224B244A5A60214A0B
:1025B000204B1B6843F08073136000BF1D4B1B68EA
:1025C00003F00073002BF9D01B4A1B4B1B6843F42C
:1025D0008033136000BF184B5B6803F48033002B1B
:1025E000F9D0154A144B1B6843F40033136000BF45
:1025F000114B5B6803F40033002BF9D0104B40F211
:1026000005721A600B4A0B4B9B6823F0030393601F
:10261000084A084B9B6843F00203936000BF054BD8
:102620009B6803F00C03082BF9D10C37BD465DF80D
:10263000047B70470038024000700040085A400791
:10264000003C024080B58AB000AF0346FB71002316
:1026500087F82730684B1B78002B0AD0674B1B7814
:10266000FA799A4202D1012387F8273097F8273068
:10267000BEE04FF480100121FEF762FD604B9B68C5
:1026800018460121FEF720FD5D4B9B69184601218C
:10269000FEF71AFD5A4B9B6A18460121FEF714FDFE
:1026A000574B1A68564B1B7B9BB2104619460522A6
:1026B000FFF7C0FE524B1A69514B1B7F9BB210466D
:1026C00019460522FFF7B6FE4D4B1A6A4C4B93F89C
:1026D0002C309BB2104619460522FFF7ABFE0223B1
:1026E00087F82030022387F82130002387F8223032
:1026F000002387F82330424B9B88FB61404B1A68CC
:1027000007F11C0310461946FFF706FE3C4B9B8A57
:10271000FB613B4B1A6907F11C0310461946FFF792
:10272000FBFD374B9B8CFB61354B1A6A07F11C0391
:1027300010461946FFF7F0FD324800F087FA0023F3
:102740003B814FF482737B810023BB81FB79002B9B
:1027500002D0FB79042B04D10023FB8100233B82B0
:1027600019E0FB79012B02D0FB79052B04D1002362
:10277000FB8101233B820EE0FB79022B02D0FB7927
:10278000062B04D10223FB8100233B8203E00223BA
:10279000FB8101233B824FF400737B821823BB82B1
:1027A000FB79002B08D0FB79012B05D0FB79022B9C
:1027B00002D0FB79032B02D10023FB8201E08023AE
:1027C000FB8207233B8307F108030E48194600F0FC
:1027D000A9FA0C48012100F0E9FA074B01221A700E
:1027E000064AFB791370012387F8273097F82730C2
:1027F00018462837BD4680BD4C0000204D00002003
:10280000040000200050014080B584B000AF0346B2
:10281000FB710023FB7300BF0F48022100F002FB95
:102820000346002BF8D0FB799BB20B48194600F009
:10283000EBFA00BF0848012100F0F4FA0346002B30
:10284000F8D0054800F0D2FA0346FB73FB7B18462C
:102850001037BD4680BD00BF0050014080B485B038
:1028600000AF786039600023FB607B681B68FB6009
:10287000FA68244B1340FB603B681A683B68DB68CE
:102880001A433B685B691A433B689B691A433B6880
:10289000DB691A433B681B6A1A433B685B6A1A434D
:1028A0003B689B6A1A433B685B6B1A433B689B6BB4
:1028B0001343FA681343FB607B68FA681A607B680D
:1028C0005B69FB60FB6823F00703FB603B68DA6A27
:1028D0003B681B6B1343FA681343FB607B68FA6821
:1028E0005A613B681A697B685A603B685A687B6822
:1028F0009A603B689A687B68DA601437BD465DF879
:10290000047B70473F801CF080B483B000AF7860D8
:102910000B46FB70FB78002B06D07B681B6843F0EE
:1029200001027B681A6005E07B681B6823F00102E6
:102930007B681A600C37BD465DF8047B704700BFAA
:1029400080B485B000AFF860B9601346FB71BB6816
:1029500003F08003002B0FD0FB79002B06D0FB681F
:102960005B6943F08002FB685A6105E0FB685B69C4
:1029700023F08002FB685A61BB68802B14D0FB797E
:10298000002B08D0FB681A68BB6803F01E031A43CB
:10299000FB681A6008E0FB681A68BB6803F01E0356
:1029A000DB431A40FB681A601437BD465DF8047BB0
:1029B000704700BF80B485B000AF786039607B6835
:1029C000104A934202D8104BFB6001E00F4BFB60B2
:1029D0003B6803F00053002B07D03B6823F0F02343
:1029E00023F08213FA68D36006E03B6823F0F023FB
:1029F00023F08213FA6893601437BD465DF8047BB8
:102A0000704700BF0F640240006002400064024053
:102A100080B487B000AF786000237B6100233B6106
:102A20000023FB600023BB607B685A687B689B685F
:102A30001A437B68DB681A437B681B691A437B680F
:102A40005B691A437B689B691A437B68DB691A439D
:102A50007B681B6A1A437B685B6A13437B617B68F4
:102A60001B68002B06D140497B681B687A6941F8D6
:102A7000232011E07B68DA697B681B6A1A437B6854
:102A80005B6A1343FB60384AFB68136036497B6816
:102A90001B687A6941F823207B681B68002B30D1C2
:102AA0007B689B6A1B685A1E7B689B6A5B68013B5C
:102AB0001B011A437B689B6A9B68013B1B021A43FC
:102AC0007B689B6ADB68013B1B031A437B689B6A3C
:102AD0001B69013B1B041A437B689B6A5B69013BD2
:102AE0001B051A437B689B6A9B69013B1B061343CA
:102AF0003B611D497B681B6802333A6941F823201A
:102B00002CE07B689B6A1B685A1E7B689B6A5B682B
:102B1000013B1B011A437B689B6A9B68013B1B02BC
:102B20001A437B689B6A1B69013B1B0413433B618F
:102B30007B689B6ADB68013B1A037B689B6A5B6965
:102B4000013B1B051343BB60074ABB689360064902
:102B50007B681B6802333A6941F823201C37BD4665
:102B60005DF8047B704700BF400100A080B485B0D1
:102B700000AF78600023FB607B681A687B685B6845
:102B80001A437B689B68013B5B011A437B68DB68E7
:102B90005B021343FB60044AFB6813611437BD46B4
:102BA0005DF8047B704700BF400100A080B483B093
:102BB00000AF78600549054B5A697B685B00134399
:102BC0004B610C37BD465DF8047B7047400100A0A7
:102BD00080B485B000AF786039600023FB730023B8
:102BE000BB607B68102B03D1144B5B68BB6012E0A9
:102BF0007B68B3F5807F03D1114B5B68BB600AE053
:102C00007B68B3F5805F03D10E4B5B68BB6002E06D
:102C10000D4B9B69BB60BA683B681A403B689A429F
:102C200002D00023FB7301E00123FB73FB7B1846FA
:102C30001437BD465DF8047B704700BF600000A0FC
:102C4000800000A0A00000A0400100A080B582B0DC
:102C500000AF78607B682D4A93420AD14FF48050D0
:102C60000121FEF7C7FA4FF480500021FEF7C2FAA7
:102C700049E07B68264A93420AD14FF48040012103
:102C8000FEF79AFA4FF480400021FEF795FA3AE0F9
:102C90007B68204A93420AD14FF400400121FEF79D
:102CA0008BFA4FF400400021FEF786FA2BE07B6898
:102CB000194A93420AD14FF400500121FEF79AFAC3
:102CC0004FF400500021FEF795FA1CE07B68134A90
:102CD00093420AD14FF480100121FEF78BFA4FF492
:102CE00080100021FEF786FA0DE07B680C4A9342C3
:102CF00009D14FF400100121FEF77CFA4FF40010C7
:102D00000021FEF777FA0837BD4680BD003001404C
:102D100000380040003C00400034014000500140B9
:102D20000054014080B485B000AF78603960002362
:102D3000FB817B681B88FB81FB8903F44153FB818A
:102D40003B681A883B685B8813439AB23B689B8850
:102D500013439AB23B68DB8813439AB23B681B89E2
:102D600013439AB23B685B8913439AB23B689B89D1
:102D700013439AB23B68DB8913439AB2FB8913432E
:102D8000FB817B68FA891A807B689B8B9BB223F45A
:102D900000639AB27B689A833B681A8A7B681A82BE
:102DA0001437BD465DF8047B704700BF80B483B024
:102DB00000AF78600B46FB70FB78002B08D07B6877
:102DC0001B889BB243F040039AB27B681A8007E0ED
:102DD0007B681B889BB223F040039AB27B681A8001
:102DE0000C37BD465DF8047B704700BF80B483B0EC
:102DF00000AF78607B689B899BB218460C37BD4654
:102E00005DF8047B704700BF80B483B000AF78608A
:102E10000B467B807B687A889A810C37BD465DF8CB
:102E2000047B704780B485B000AF78600B467B8030
:102E30000023FB737B681B899AB27B8813409BB28B
:102E4000002B02D00123FB7301E00023FB73FB7B0B
:102E500018461437BD465DF8047B704780B485B0D2
:102E600000AF78600023FB730023BB730F237B73D9
:102E70007B68DB78002B38D0264BDB68DB4303F420
:102E8000E0631B0AFB73FB7BC3F10403BB737A7B18
:102E9000FB7B42FA03F37B737B685B781A46BB7B50
:102EA00002FA03F3FB737B689A787B7B1340DAB2F8
:102EB000FB7B1343FB73FB7B1B01FB73164A7B6895
:102EC0001B781344FA7B83F80023134A7B681B7832
:102ED0005B09DBB218467B681B7803F01F030121F6
:102EE00001FA03F342F820300FE00B497B681B78AE
:102EF0005B09DBB218467B681B7803F01F030122D5
:102F00009A4000F1200341F823201437BD465DF8B4
:0C2F1000047B704700ED00E000E100E0F1
:102F1C000A000000001402408000000020000000A5
:102F2C000700000000140240000200002000000016
:102F3C000900000000140240000100002000000005
:042F4C000800000079
:0400000508000000EF
:00000001FF
