:020000040800F2
:1000000080080020AD010008050200080502000874
:1000100005020008050200080502000800000000B3
:1000200000000000000000000000000005020008C1
:100030000502000800000000050200080502000893
:100040000502000805020008050200080502000874
:100050000502000805020008050200080502000864
:100060000502000805020008050200080502000854
:100070000502000805020008050200080502000844
:100080000502000805020008050200080502000834
:100090000502000805020008050200080502000824
:1000A0000502000805020008050200080502000814
:1000B0000502000805020008050200080502000804
:1000C00005020008050200080502000805020008F4
:1000D00005020008050200080502000805020008E4
:1000E00005020008050200080502000805020008D4
:1000F00005020008050200080502000805020008C4
:1001000005020008050200080502000805020008B3
:1001100005020008050200080502000805020008A3
:10012000CD040008F10400081505000805020008C8
:100130000502000805020008050200080502000883
:100140000502000805020008050200080502000873
:100150000502000805020008050200080502000863
:100160000502000805020008050200080502000853
:100170000502000805020008050200080502000843
:100180000502000805020008050200080502000833
:100190000502000805020008050200080502000823
:1001A00005020008050200080502000880B582B0BB
:1001B00000AF0F4B7B600F4B3B6007E03B681A1DA5
:1001C0003A607A68111D796012681A603B680A4AC1
:1001D0009342F3D309480A494FF000028842B8BF5E
:1001E00040F8042BFADB00F0A7F90837BD4680BDC4
:1001F000240E000800000020000000200000002065
:100200008000002080B400AFFEE700BF80B582B060
:1002100000AF4FF48000012100F096F94FF4807098
:10022000012100F0AFF94FF40070012100F0AAF9AC
:100230004FF48060012100F0A5F90120012100F0B8
:1002400083F90420012100F07FF92020012100F032
:100250007BF98B4BA0221A60894B03221A71884BC1
:100260000022DA718748864900F054FB844B08224B
:100270001A608548824900F04DFB814B40221A608C
:1002800082487F4900F046FB814B00221A60814A78
:100290007F4B9A607E4B804A5A607D4B0022DA6029
:1002A0007B4B02221A617A4B00225A61784B4FF441
:1002B00080629A61764B4FF40062DA61744B4FF4BE
:1002C00000521A62724B4FF480725A62704B4FF4B4
:1002D00000329A626E4B0422DA626D4B01221A637D
:1002E0006B4B00225A636A4B00229A636B48684941
:1002F00000F05EFC664B4FF000721A60684A644B77
:100300009A60634B674A5A60614B01221A616648E2
:100310005F4900F04DFC5E4B4FF080621A60634A0B
:100320005B4B9A605A4B624A5A60594B01221A61E0
:100330006048574900F03CFC5848012100F08EFC11
:100340005C48012100F08AFC5748012100F086FC3E
:1003500052481021012200F09DFC56481021012234
:1003600000F098FC50481021012200F093FC524B01
:1003700000221A60504B4FF440325A604E4B00221C
:100380009A604D4B0022DA604B4800F06DF94B4B00
:1003900000221A60494B01221A71484B01225A71FE
:1003A000464B00229A60454B00221A61434B0222C1
:1003B0001A754348414900F003F9404B01221A7570
:1003C00040483E4900F0FCF83C4B01221A753E487B
:1003D0003A4900F0F5F83A4805210122022300F0DD
:1003E00087F9374807210222022300F081F93548B6
:1003F0000D210122002300F07BF933480421012262
:10040000002300F075F93A233B7100237B7101232F
:10041000BB710123FB713B1D184600F0A3FC28486B
:10042000012100F03FFA2748012100F03BFA26485D
:10043000012100F037FA2248012100F04FFA21484B
:10044000012100F04BFA2048012100F047FA1C4836
:10045000012100F031F91B48012100F02DF91A4863
:10046000012100F029F9164800F00CFA154800F0B7
:1004700009FA154800F006FA0837BD4680BD00BFEE
:100480002C0000200000024000080240001402403E
:1004900034000020000000204C2001401064024085
:1004A000040000204C21014040640240060000206E
:1004B0004C220140286402407000002014000020FB
:1004C00000200140002101400022014080B500AF22
:1004D0000448054900F018FC044B1B680133034A2B
:1004E000136080BD10640240200000100C0000204A
:1004F00080B500AF0448054900F006FC044B1B68BA
:100500000133034A136080BD2864024000080010D4
:100510001000002080B500AF05484FF0815100F079
:10052000F3FB044B1B680133024A136080BD00BF1C
:10053000406402400800002080B500AF00F078FA67
:10054000FFF764FEFEE700BF80B483B000AF7860C1
:100550000B46FB70FB78002B06D00949084B1A6B41
:100560007B6813430B6306E00549054B1A6B7B68F8
:10057000DB4313400B630C37BD465DF8047B7047CB
:100580000038024080B483B000AF78600B46FB7047
:10059000FB78002B06D00949084B5A6C7B68134343
:1005A0004B6406E00549054B5A6C7B68DB431340FE
:1005B0004B640C37BD465DF8047B70470038024041
:1005C00080B485B000AF786039600023FB60002301
:1005D000FB727B685B68FB60FB6823F0407323F46D
:1005E0008073FB603B681B791A023B681B681343EE
:1005F000FA681343FB607B68FA685A607B689B6803
:10060000FB60FA68174B1340FB603B681A693B6854
:10061000DB681A433B689B681A433B685B795B0065
:100620001343FA681343FB607B68FA689A607B683F
:10063000DB6AFB60FB6823F47003FB603B681B7D97
:10064000013BDAB2FB7A1343FB72FB7A1B05FA68B3
:100650001343FB607B68FA68DA621437BD465DF8C5
:10066000047B7047FDF7FFC080B485B000AF7860B1
:100670000023FB600E4B5B68FB60FA680D4B134078
:10068000FB607B681A687B685B681A437B689B68C1
:100690001A437B68DB681343FA681343FB60044A20
:1006A000FB6853601437BD465DF8047B704700BF9C
:1006B00000230140E030FCFF80B483B000AF7860DD
:1006C0000B46FB70FB78002B06D07B689B6843F0E1
:1006D00001027B689A6005E07B689B6823F0010259
:1006E0007B689A600C37BD465DF8047B704700BF9D
:1006F00080B485B000AF7860084611461A460346BC
:10070000FB700B46BB7013467B700023FB6000231D
:10071000BB60FB78092B23D97B68DB68FB60FB7827
:10072000A3F10A0213465B001344072202FA03F303
:10073000BB60BB68DB43FA681340FB607978FB78E9
:10074000A3F10A0213465B00134401FA03F3BB60F2
:10075000FA68BB681343FB607B68FA68DA601EE0E6
:100760007B681B69FB60FA7813465B001344072221
:1007700002FA03F3BB60BB68DB43FA681340FB601B
:100780007978FA7813465B00134401FA03F3BB60EF
:10079000FA68BB681343FB607B68FA681A61BB7830
:1007A000062B21D87B685B6BFB60BB785A1E134617
:1007B0009B0013441F2202FA03F3BB60BB68DB43B8
:1007C000FA681340FB60F978BB785A1E13469B0009
:1007D000134401FA03F3BB60FA68BB681343FB6080
:1007E0007B68FA685A6347E0BB780C2B21D87B689A
:1007F0001B6BFB60BB78DA1F13469B0013441F2260
:1008000002FA03F3BB60BB68DB43FA681340FB608A
:10081000F978BB78DA1F13469B00134401FA03F3FF
:10082000BB60FA68BB681343FB607B68FA681A63B5
:1008300022E07B68DB6AFB60BB78A3F10D02134604
:100840009B0013441F2202FA03F3BB60BB68DB4327
:10085000FA681340FB60F978BB78A3F10D021346E8
:100860009B00134401FA03F3BB60FA68BB681343AF
:10087000FB607B68FA68DA621437BD465DF8047B7A
:10088000704700BF80B483B000AF78607B689B681E
:1008900043F080427B689A600C37BD465DF8047B6C
:1008A000704700BF80B483B000AF78600B46FB7028
:1008B000FB78002B06D07B689B6843F480727B68D2
:1008C0009A6005E07B689B6823F480727B689A607D
:1008D0000C37BD465DF8047B704700BF80B483B021
:1008E00000AF78600B46FB70FB78002B06D07B686E
:1008F0009B6843F400727B689A6005E07B689B68A4
:1009000023F400727B689A600C37BD465DF8047B67
:10091000704700BF80B487B000AF786039600023B3
:100920007B6100233B610023FB6000237B6176E059
:100930007B69012202FA03F33B613B681A683B6959
:100940001340FB60FA683B699A4265D17B681A687C
:100950007B695B00194603238B40DB431A407B68AD
:100960001A607B681A683B681B7919467B695B00D3
:1009700001FA03F31A437B681A603B681B79012B69
:1009800003D03B681B79022B2ED17B689A687B6968
:100990005B00194603238B40DB431A407B689A6057
:1009A0007B689A683B685B7919467B695B0001FA52
:1009B00003F31A437B689A607B685A687B699BB231
:1009C000194601238B40DB431A407B685A607B68E1
:1009D0005B683A68927911467A6992B201FA02F23A
:1009E00092B21A437B685A607B68DA687B699BB273
:1009F0005B00032101FA03F3DB431A407B68DA60F2
:100A00007B68DA683B68DB7919467B695B0001FA31
:100A100003F31A437B68DA607B6901337B617B698E
:100A20000F2B85D91C37BD465DF8047B704700BF8E
:100A300080B500AF114A114B1B6843F001031360EE
:100A40000E4B00229A600D4A0C4B1B6823F08473F6
:100A500023F480331360094B094A5A60074A074B55
:100A60001B6823F480231360044B0022DA6000F03B
:100A70000BF8044B4FF000629A6080BD00380240D2
:100A80001030002400ED00E080B483B000AF0023FC
:100A90007B6000233B60424A414B1B6843F4803338
:100AA00013603F4B1B6803F400333B607B680133EA
:100AB0007B603B68002B03D17B68B3F5A04FF0D17E
:100AC000374B1B6803F40033002B02D001233B603B
:100AD00001E000233B603B68012B5CD1304A304B86
:100AE0001B6C43F0805313642E4A2E4B1B6843F457
:100AF000404313602A4A2A4B9B689360284A284B3C
:100B00009B6843F400439360254A254B9B6843F45C
:100B1000A0539360224B244A5A60214A204B1B6801
:100B200043F08073136000BF1D4B1B6803F000731C
:100B3000002BF9D01B4A1B4B1B6843F48033136016
:100B400000BF184B5B6803F48033002BF9D0154AC3
:100B5000144B1B6843F40033136000BF114B5B68F8
:100B600003F40033002BF9D0104B40F205721A60E9
:100B70000B4A0B4B9B6823F003039360084A084B16
:100B80009B6843F00203936000BF054B9B6803F032
:100B90000C03082BF9D10C37BD465DF8047B704778
:100BA000003802400070004008484107003C024005
:100BB00080B485B000AF786039600023FB607B684B
:100BC0001B68FB60FA68244B1340FB603B681A68A3
:100BD0003B68DB681A433B685B691A433B689B6967
:100BE0001A433B68DB691A433B681B6A1A433B683C
:100BF0005B6A1A433B689B6A1A433B685B6B1A4308
:100C00003B689B6B1343FA681343FB607B68FA688D
:100C10001A607B685B69FB60FB6823F00703FB607D
:100C20003B68DA6A3B681B6B1343FA681343FB604B
:100C30007B68FA685A613B681A697B685A603B684E
:100C40005A687B689A603B689A687B68DA601437F8
:100C5000BD465DF8047B70473F801CF080B483B0D4
:100C600000AF78600B46FB70FB78002B06D07B68EA
:100C70001B6843F001027B681A6005E07B681B6813
:100C800023F001027B681A600C37BD465DF8047BD7
:100C9000704700BF80B485B000AFF860B9601346FC
:100CA000FB71BB6803F08003002B0FD0FB79002B96
:100CB00006D0FB685B6943F08002FB685A6105E07F
:100CC000FB685B6923F08002FB685A61BB68802B7C
:100CD00014D0FB79002B08D0FB681A68BB6803F0BE
:100CE0001E031A43FB681A6008E0FB681A68BB68B9
:100CF00003F01E03DB431A40FB681A601437BD463D
:100D00005DF8047B704700BF80B485B000AF7860A9
:100D100039607B68104A934202D8104BFB6001E0B7
:100D20000F4BFB603B6803F00053002B07D03B6880
:100D300023F0F02323F08213FA68D36006E03B68C7
:100D400023F0F02323F08213FA6893601437BD4632
:100D50005DF8047B704700BF0F64024000600240F2
:100D60000064024080B485B000AF78600023FB735C
:100D70000023BB730F237B737B68DB78002B38D099
:100D8000264BDB68DB4303F4E0631B0AFB73FB7B4E
:100D9000C3F10403BB737A7BFB7B42FA03F37B73DF
:100DA0007B685B781A46BB7B02FA03F3FB737B68B4
:100DB0009A787B7B1340DAB2FB7B1343FB73FB7B9C
:100DC0001B01FB73164A7B681B781344FA7B83F87C
:100DD0000023134A7B681B785B09DBB218467B68EB
:100DE0001B7803F01F03012101FA03F342F82030BE
:100DF0000FE00B497B681B785B09DBB218467B6808
:100E00001B7803F01F0301229A4000F1200341F8F0
:100E100023201437BD465DF8047B704700ED00E0E9
:040E200000E100E00D
:0400000508000000EF
:00000001FF
